{
  "contractName": "DappToken",
  "abi": [
    {
      "constant": true,
      "inputs": [],
      "name": "totalSupply",
      "outputs": [
        {
          "name": "",
          "type": "uint256"
        }
      ],
      "payable": false,
      "stateMutability": "view",
      "type": "function"
    },
    {
      "inputs": [],
      "payable": false,
      "stateMutability": "nonpayable",
      "type": "constructor"
    }
  ],
  "bytecode": "0x608060405234801561001057600080fd5b50620f4240600081905550609e806100296000396000f3fe608060405260043610603f576000357c0100000000000000000000000000000000000000000000000000000000900463ffffffff16806318160ddd146044575b600080fd5b348015604f57600080fd5b506056606c565b6040518082815260200191505060405180910390f35b6000548156fea165627a7a723058202102ab742dbe92f4c9fffa82bb257e29a6d222fb4fc5b8cf881935310b1dad200029",
  "source": "pragma solidity >=0.4.21 <0.6.0;\r\n\r\ncontract DappToken {\r\n    uint256 public totalSupply;\r\n\r\n  constructor() public {\r\n     totalSupply=1000000;\r\n   }\r\n    \r\n}\r\n",
  "sourcePath": "C:/Users/ashis/Desktop/Stuff/Token Startup/token_sale3/contracts/DappToken.sol",
  "compiler": {
    "name": "solc",
    "version": "0.5.0+commit.1d4f565a.Emscripten.clang"
  },
  "schemaVersion": "3.0.9",
  "updatedAt": "2019-05-07T12:37:41.505Z",
  "devdoc": {
    "methods": {}
  },
  "userdoc": {
    "methods": {}
  }
}